:400000000010002011000000FD020000FD02000008B500F08FF9C04638B5164C23688022D20213432360182000F034FB2268124B13402360114A124B1A601022114B1A60CF
:400040001032114B1A6080221206104B1A60002525600F4A0F4B1A600F4A104B1A6009200F4900F0E3FA092000F0D4FA0D4B1D6038BDC04600010B40FFFFFBFF0600008005
:4000800004010B40080202400C02024008010B4010000080000002409B00008040000240A50800000C020B4010B572B6002410E0244863001A195200821891881B195B00F4
:4000C0001A5AC31858880004104300F07BF90134E4B2012CECD999231B041B4A1360EE2109021A4A11609921194A1160194A1360194A1360194B1978022002220A431A706B
:40010000174C22783C218A4328390A432270197816220A431A702023124A1360C4218902114A1160114A1360D8221201104B1A60104B18603122104B1A60104B1860FFF7F6
:400140006BFF10BD9C130000000001400C0001401000014000500F4030500F4000700F4001700F40000004400800044018000440080304400004044008040440180404409A
:4001800010B5064C2378002B07D1054B002B02D0044800E000BF0123237010BD48010020000000002C13000008B5084B002B03D00748084900E000BF07480368002B00D123
:4001C00008BD064B002BFBD09847F9E7000000002C1300004C010020C80000200000000030B587B0002317226A4413700093019302930393049300F081F900F0FDF81F4C54
:40020000201C00F05BF91E4800F058F9201C1C3000F054F9002517246C44201C00F03AF8021C2378022B0BD0032B11D0012B1AD16846144900F072FC684600F03FF9EAE76D
:400240006846114900F06AFC684600F037F9E2E768460E4900F062FC684600F02FF9084800F02CF9D7E70135ADB2684608492A1C00F054FC684600F021F9CCE73013000085
:400280005C130000601300006C130000781300008413000038B5051C00F046F90028FBD000F0A2F9C4B20306F6D5C0231840802806D0C0280AD14034E4B2BF3B2B7007E0B4
:4002C000803CE4B22B7801332B7001E000232B7000F02AF90028FBD000F086F9C3B2020601D500222A703F221440E40140321340E4180A2000F0ACF9201C38BDFEE7C046E1
:4003000008B5031C094A1068C318094A9A1A802189008A4202DC054A136005E000F0CAFB0C2303600120404208BDC046CC0000209001002070B50F4E0F4D13E029686B6832
:40034000AC68002202E001C901C30432A242FAD1E868002202E0002102C304328242FAD11035013E002EE9D100F0AAFBFFF738FFFEE7C046010000003414000008B50023B1
:400380000AE0032B03D89A000A49505800E00A4899000A4A885001332F2BF2D9FFF784FE0022074B1A608022D205116801230B43136008BD00000000FD0200000000002044
:4003C000C000002008B50A1C002100F09FFB08BD08B500F069F808BD08B500F01DF808BD08B5044A1368802109060B431360FFF7EFFF08BD0000064008B5064B1B78002BBE
:4004000004D1FFF7E9FF0122024B1A70FFF7E8FF08BDC0466401002010B5124A124B1A600023124A13600121114A1160114A12480260072411480460114803601148016095
:4004400011490A60114A1360114A1360114A1360114A1360114A1360114A1360114A136010BDC0460B000002000006404000064048000640070000800003064004030640BF
:4004800010030640440006400002064004020640880E0640C80E0640480F0640080F0640C80F0640880F064003490B68F0229343603A13430B6070471000014038B5051CC1
:4004C000002402E000F040FA0134285D0028F9D138BDC04608B500F079F808BD08B500F02BF808BD08B5044A1368802109060B431360FFF7EFFF08BD0000074008B5064BB8
:400500001B78002B04D1FFF7E9FF0122024B1A70FFF7E8FF08BDC04665010020014B18687047C04640030740024B1B680F2018407047C04608030740124A134B1A60002352
:40054000124A1360032212490A6012481249086007201249086012490B6012490A601249124A1160124A1360124A1360124A1360124A1360124A1360124A1360124A13605F
:400580007047C0460F0000020000074040000740480007400702008000030740040307401003074044000740070000800002074004020740880E0740C80E0740480F074055
:4005C000080F0740C80F0740880F0740044A1168044B0B40902109040B4313607047C04600000140FFFF0FFF08B5FFF79DFF002802D0FFF793FF00E00020054B1A68D82319
:400600009B001A4203D01A1C014B1A60002008BDC00F07401F2318401E3B8340181C014B1860704700E100E001BE704738B5041C0D1C1F2802D90020FFF7F6FFA400034B08
:400640009C4664442068256038BDC0464000002010B5041C06E0084B186800F085F9074B9C46644480231B029C42F4D8024B5868604300F079F910BDD00000200080FFFFE9
:4006800008B5034B1B7A584300F06EF908BDC046D0000020F0B557464E46C0B483B0041C00F06CF90190E71E2D2F74D83F4B1B78DBB2A34208D33E4B1B78DBB29A463D4B42
:4006C0001B78DBB2994631E03B4B1B78DBB2A34208D33A4B1B78DBB29A46394B1B78DBB2994623E0374B1B78DBB2A34208D3364B1B78DBB29A46354B1B78DBB2994615E022
:40070000334B1B78DBB2A34208D3324B1B78DBB29A46314B1B78DBB2994607E02F4B1B78DBB29A462E4B1B78DBB299462D4BDE5D2F2E09D92A2C07D919222B4B1A60052012
:4007400000F012F9192503E0274B1D683F231D40AE4206D2234BDA5D234B1A60052000F003F91F4B9C4664442378DBB21F4A13601F4B52461A601F4B4A461A600520FFF73E
:400780007FFFAE420AD9174BDA5D174B1A60052000F0EAF802E00020FFF746FF019800F0F1F803B00CBC91469A46F0BDC0F1FF0FC1F1FF0FC2F1FF0FC3F1FF0FC4F1FF0F29
:4007C000C5F1FF0FC6F1FF0FC7F1FF0FC8F1FF0FC9F1FF0FCAF1FF0FCBF1FF0FCCF1FF0FCDF1FF0FA81300002CFF0B4028FF0B401CFF0B4020FF0B40034B1868C0231B02B0
:40080000184000D00120704700010B4008B500F0B5F8044A1368C02109020B43136000F0B1F808BD00010B4010B500F0A7F808490A68084B1A408024E40122430A600A6864
:4008400013408022120213430B6000F09BF810BD00010B40FF3FFFFF70B5061C00F08EF8041CFFF7C9FF002803D0FFF7DDFF012500E000250848331C0340084A1068084946
:400880000840184310601368012D01D1FFF7BEFF201C00F077F870BD0404040010020B40FBFBFBFF10B5244B1B685B0715D5234B1B685B070ED5224B9969042001401F4C5E
:4008C00022688A4322609A6982439A61DB68002B00D098470420FFF7BFFF174B1B685B0518D5164B1B685B0510D5154B99698022D2001140114802688A4302609969114A96
:400900000A409A611B69002B00D098478020C000FFF7A2FF084B1B685B030CD5074B1B685B0304D5064B5B69002B00D098478020C002FFF791FF10BD10020B40E0000020FB
:4009400068010020FFFBFFFF044B1B680F221340082BF9D0024B18607047C0460802064040020640000000000230800804D0C0460138FDD1C046C046C0467047EFF3108074
:4009800072B6704780F310887047C046C046C046002243088B4274D303098B425FD3030A8B4244D3030B8B4228D3030C8B420DD3FF22090212BA030C8B4202D3121209029D
:4009C00065D0030B8B4219D300E0090AC30B8B4201D3CB03C01A5241830B8B4201D38B03C01A5241430B8B4201D34B03C01A5241030B8B4201D30B03C01A5241C30A8B42C6
:400A000001D3CB02C01A5241830A8B4201D38B02C01A5241430A8B4201D34B02C01A5241030A8B4201D30B02C01A5241CDD2C3098B4201D3CB01C01A524183098B4201D33E
:400A40008B01C01A524143098B4201D34B01C01A524103098B4201D30B01C01A5241C3088B4201D3CB00C01A524183088B4201D38B00C01A524143088B4201D34B00C01AD8
:400A80005241411A00D20146524110467047FFE701B5002000F00CF802BDC0460029F7D003B5FFF775FF0EBC4243891A1847C0467047C046014B18687047C0464401002006
:400AC0000E4B70B500251E1C0D4CE41AA410A54204D0AB00F35898470135F8E700F098FC084B00251E1C084CE41AA410A54204D0AB00F35898470135F8E770BD1C1400002B
:400B00001C1400001C14000024140000031C8218934202D019700133FAE770470EB410B59DB002A9029008610B48822488604861012040421FABC881084804CBA400006883
:400B400001938C8100F06CF80023029A13701DB010BC08BC03B01847FFFFFF7F44010020F0B58E6885B0071C0C1C03920193B34245D390238A89DB001A423DD003250969F9
:400B8000236801985B1A029363695D43EB0F5D19029B6D1001331B189D4200D21D1C381C53050FD5291C00F025FB061E13D0029A216900F0BCFAA289184B1340802213432F
:400BC000A38111E02A1C00F06DFB061E0CD1381C216900F0C9FA0C23402201203B60A38940421343A38117E0029B2661F61826606561019EED1AA560019BB34200D2019E19
:400C0000321C2068039900F09BFA0020A3689B1BA36023689E19266005B0F0BD7FFBFFFFF0B59FB0029005938B890E1C171C1B0610D50B69002B0DD1402100F0DBFA30606F
:400C40003061002804D10C23029A01381360D0E040237361002306AD6B6120336B761033AB763C1C2378002B03D1E31B049312D003E0252BF9D00134F4E7049B0298311C53
:400C80003A1CFFF76DFF431C00D1ACE06A69049B944663446B612378002B00D1A3E00122002352426A6002A95432521801342B60EB60AB601370AB654F4F2178381C05224D
:400CC00000F02AFA002808D0C01B01278740381C2B68013418432860EEE72B68DA0604D55322202102A8121811701A0704D553222B2102A81218117022782A2A01D0099B78
:400D00000EE0059A111D12680591002A01DB099204E05242EA60022213432B60013409E02278303A092A04D80A214B4301349B18F6E7099323782E2B18D163782A2B09D14E
:400D4000059B02341A1D1B680592002B0DDA01235B420AE0002301342278303A092A04D80A214B4301349B18F6E70793234F2178381C032200F0D0F9002807D0C01B40278E
:400D80008740381C2B6801341843286021781C480622671C297600F0BFF9002812D0194B002B06D10722059B073393430833059314E005AB00930298291C321C124B00E0C1
:400DC00000BF07E005AB00930298291C321C0E4B00F08AF80390039B013304D06B69039A9B186B613DE7B3890B985B0601D5012040421FB0F0BDC046DA130000E0130000AA
:400E0000E413000000000000610B0000F7B5171C01930A698B6800900C1C934200DA131C221C3B6043321278002A01D001333B6023689B0602D53B6802333B600625236812
:400E40001D401ED0231C43331B785A1E9341226892061CD53020E1184031C870211C5A1C45310978A21840320233D1700FE0221C0123009801991932089EB047431C0ED09A
:400E80000135E3683A689B1A9D42F0DBDAE7221C009801994332089DA847431C02D10120404220E006232068E1683A6803400025042B03D18D1AEB43DB171D40A3682269E0
:400EC000934201DD9B1AED180027AF420ADA221C0123009801991A32089EB047431CDED00137F2E70020FEBDF0B58BB006920A1C43320793059004920A7E0C1C109B6E2A48
:400F000000D1A8E011D8632A22D009D8002A00D1B2E0582A00D0C2E045310A707C4A4FE0642A1DD0692A1BD0B9E0732A00D1A7E009D86F2A29D0702A00D0B0E02022096802
:400F40000A43226037E0752A1FD0782A33D0A6E00E1C1A684236111D196013683370A1E021681A68080606D4490604D5111D19600023D55E02E0111D19601568002D3BDA08
:400F80002D23049A6D42137036E021681A68080606D4490604D51568111D1960ADB202E0111D196015685A4B227E03930A276F2A1DD108271BE0221C782145321170554A2C
:400FC00019680392081D226818600D68100602D4500600D5ADB2D30702D520231A4322601027002D03D1202322689A432260231C002243331A7002E00A27454B039363682D
:40100000A360002B03DB0422216891432160002D02D1049E002B0ED0049E281C391CFFF73DFD039B013E5B5C281C3370391CFFF7AFFC051EF1D1082F09D12368DB0706D5DB
:4010400063682269934202DC3023013E3370049B9B1B23612BE009681A68080607D4490605D5111D19601368A28A1A8004E0111D1960136862691A600023049E236116E0D7
:401080001A68111D196016680021301C626800F043F8002801D0801B6060636803E0261C42363270012323610023049A1370079B05980093211C069B09AAFFF7A7FE431C80
:4010C00002D10120404221E0236905980699321C079DA847431CF4D023689B0705D4099BE068984212DA181C10E00025E368099A9B1A9D42F3DA221C012305980699193274
:40110000079EB047431CDCD00135EFE70BB0F0BDEB130000FC130000C9B28218904204D003788B4202D00130F8E700207047002310B5934203D0CC5CC4540133F9E710BD1A
:4011400010B5814208D28B18984205D29B1A013A09D3995C8154FAE70023934203D0CC5CC4540133F9E710BD30B500293ED004390B68002B00DAC9181D4A1368141C002B67
:4011800002D14B60116031E099420DD208680A189A4203D11368C3180B6053684B60216024E08A4203D8131C5A68002AF9D11D685C198C420BD109686918581819609042AA
:4011C00014D110685268091819605A600EE08C4202D90C23036009E008680C18944203D114685268001908604A60596030BDC04688010020032370B5CC1C9C430834051C0F
:401200000C2C01D20C2405E0002C03DA0C2300202B6042E08C42F9D3204A1368101C191C002913D00A68121B0DD40B2A02D90A608B181FE08B4202D15A6802601BE04A6890
:401240005A600B1C17E00B1C4968E9E7144E3368002B03D1281C00F04BF83060281C211C00F046F8031C421CD0D00322C61C964386420AD11C60181C07210B301A1D884387
:40128000821A0AD05142995007E0311A281C00F02FF8431CBAD0331CECE770BD8801002084010020F8B5061C0C1C151C002904D1111CFFF79FFF041C18E0002A03D1FFF736
:4012C00053FF2C1C12E000F025F8A8420ED2301C291CFFF78FFF071E07D0211C2A1CFFF726FF301C211CFFF73FFF3C1C201CF8BD38B50023064C051C081C2360FFF700F8BE
:40130000431C03D12368002B00D02B6038BDC0468C0100200B1F1A68101F002A04DA891804390B68D018043870470000000000000A0D50736F6320656E206D6F64652072BC
:401340006563657074696F6E0D0A0000726563657074696F6E203A20000000000A0D0000615F78203A25640A0D000000615F79203A25640A0D000000615F7A203A25640A19
:401380000D000000657272657572206E756D65726F203A2025640A0D0000000000300F40000400400F400004030405060708090A0B0C0E0F101112131415161718191B1C39
:4013C0001D1E1F2021222325262728292A2B2E2F30313233343500004300232D302B2000686C4C0065666745464700303132333435363738394142434445460030313233CF
:4014000034353637383961626364656600000000F8B5C046F8BC08BC9E467047A90100007D030000F8B5C046F8BC08BC9E4670478101000048140000C80000208000000014
:40144000480000000000000000000000900100200000E02EC05D00001800000000366E0104040400000000000000000000000000000000000000000000000000000000007F
:4014800000000000D8130000000000000000000000000000000000000000000000000000000000000000000000000000000000000000000000000000000000000000000041
:4014C00000000000E40000200000000000000000000000000000000000000000000000000000000000000000000000000000000000000000000000000000000000000000E8
:4015000000000000000000000000000000000000000000000000000000000000000000000000000000000000000000000000000000000000000000000000000000000000AB
:40154000000000000000000000000000000000000000000000000000000000000000000000000000000000000000000000000000000000000000000000000000000000006B
:40158000000000000000000000000000000000000000000000000000000000000000000000000000000000000000000000000000000000000000000000000000000000002B
:4015C00000000000000000000000000000000000000000000000000000000000000000000000000000000000000000000000000000000000000000000000000000000000EB
:0200000490303A
:02000000862454
:0200000490402A
:200000000000000000000000000000000000000000000000000000000000000000000000E0
:0200000490501A
:0C0000000002041611931101041C97B7B4
:0200000490600A
:0100000001FE
:00000001FF