:400000000010002011000000150500001505000008B500F081FAC04610B5134C23688022D20213432360042000F088FD22680F4B134023600E4A0F4B1A6010220E4B1A609B
:4000400010320E4B1A60802212060D4B1A6080231B0323600B4A0C4B1A600C4A0C4B1A6000220C4B1A6010BD00010B40FFFFFBFF0600008004010B400802024030020240B4
:4000800008010B40010000800000024033000080400002400C020B4010B572B6002410E0294863001A195200821891881B195B001A5AC31858880004104300F08FFA0134CB
:4000C000E4B2012CECD92049081C0C30243100F06BFAC02292031D4B1A60EE2212021C4B1A60EE221B4B1A6099231B041A4A13608021C904194A1160194A1360194B1978F8
:4001000002220A431A70184802783C218A4328390A430270197816220A431A702023134A1360C0218902124A1160124A1360124A124B1A600322124B1A602132114B1A608D
:40014000FFF76AFF10BDC04684360000000001400C0001401000014000500F4008500F4030500F4000700F4001700F40000004400800044000030440800D0300080304406A
:40018000000404400804044010B5064C2378002B07D1054B002B02D0044800E000BF0123237010BD48010020000000008036000008B5084B002B03D00748084900E000BFCA
:4001C00007480368002B00D108BD064B002BFBD09847F9E700000000803600004C010020C80000200000000008B58020C00000F069FE072000F03CFC08BDC04670B584B08C
:40020000002000F085FEC820400000F075FC012000F07EFE00230E226A44138003AA13800A226A44138062B600200821092200F0ABF80A2000F01CF80E266E4403AD0A24C3
:400240006C4409230093301C291C221C013300F0B1F830882988228800F032F8031C30882988228800F03CF800F01AFDE4E7C04610B5041C114800F031FF0020002100F089
:4002800091FD0020FA21C90100F0FEFD0020012100F0A4FD082000F0DDFD0120211C00F0F3FD0120012100F07DFD0120012100F095FD0220FF3000F0ADFD10BDE9010000A9
:4002C00010B54043494344185243A418201C03F017F901F0F5F801F045FB80B210BDC04630B583B0C4093F252C40403C6B461C707F2420405870C809284080389870214097
:40030000D970D3092B40803B69460B7122404A71062000F009FE002000F0FAFD0A2000F0EBFB062000F094FE00F02CFE6846062100F056FE322000F0DFFB00F065FE002894
:40034000FBD100F071FE052000F0D6FB012000F07FFE012000F0E8FD012000F0D9FD03B030BDC04600B583B001AB187059701D20191C0222002300F043FA00F0E1F983073C
:40038000FBD503B000BDC04670B5061C0C1C151C00F044F93443E1B23120FFF7E3FF10212A1C0A43D1B22C20FFF7DCFF00F046F970BDC046F0B55F4656464D464446F0B48A
:4003C00089B0804602910392994612AB1B88082B02D00022019201E0494A0192092B01D1484A01920A2B01D1474A01920B2B01D1464A01920C2B01D1454B019300F00EF931
:400400000023069306AA93802D200821FFF7AAFF282000F071FB002400250026002735E005A932230B701D200122002300F0E8F91D2006A90622002300F058FAC0B20028F4
:40044000F6D100F07DF9C307FBD506AA13789A4601201056000293789C4603215156090213799B46527952B2120253461843404336186346194349436D185B4613435B438E
:40048000E418019800F050FB0137FFB24F45C7D32D200021FFF766FF00F0D0F8301C494601F090F9061C301C03F066F801F008F801F058FA43461880281C494601F082F92C
:4004C000051C281C03F058F800F0FAFF01F04AFA029B1880201C494601F074F9041C201C03F04AF800F0ECFF01F03CFA039B188009B03CBC90469946A246AB46F0BDC0461D
:40050000409C0000204E00001027000088130000C4090000FEE7C04670B50F4E0F4D13E029686B68AC68002202E001C901C30432A242FAD1E868002202E0002102C30432B7
:400540008242FAD11035013E002EE9D103F06AF8FFF754FEFEE7C04601000000B838000008B500230AE0032B03D89A000A49505800E00A4899000A4A885001332F2BF2D94F
:40058000FFF78AFD0022074B1A608022D205116801230B43136008BD000000001505000000000020C0000020F0B50025002711E0BB00C658F3B2FF22964308E06A008A18CC
:4005C0001478A419527822700135013BDBB2002BF4D10137052FEBD9F0BDC04608B50A1C002103F045F808BD08B50A2000F02CFA08BDC04608B500F09DF808BD08B500F00F
:4006000033F808BD08B5044A1368802109060B431360FFF7E9FF08BD0000064008B5064B1B78002B04D1FFF7E9FF0122024B1A70FFF7E8FF08BDC0466401002008B50A205D
:4006400000F00CFAFFF7D6FF054A13685B005B0813600022034B1A600A2000F009FA08BD00000640880F064010B51D4A11680C230B43136000241B4B1C601B4A1B4B1A60EF
:400680001B4B1C4A13601C4A14601C4A14601C4A13601C4B1C600A2000F0E0F90A20032100F004FA0A20184900F0EEF9174B1C60174B1C60174B1C601422FF32164B1A601E
:4006C000164B1C60164B1C60043AFF3A154B1A70154B1C80154B1C60154B1C6010BDC04670000640000006409908008060000640070100800003064004030640100306401E
:400700000002064004020640F9100000C80E0640880E0640480F0640080F0640C80F0640880F06407401002084010020940100208C0100201022014B1A7070477401002040
:4007400010B50A2000F08AF9074B1B889BB21C1C064A1278920601D504241C430A2000F073F9201C10BDC046840100207401002010B51F4B1C6800F037F90028FBD0002019
:4007800000F03AF91B4A13680F218B4313601A4A13685B005B081360A3060FD5002000F02BF90A2000F0C0F9012000F025F900F02FF90028FBD00A2000F0B6F9002000F00E
:4007C0001BF90A2000F0B0F901220C4B1A600A4A1368802109060B43136006490B680F229343013A13430B60012000F005F910BD640006401000014000000640680006405E
:40080000F0B583B001900C1C171C1D1C002919D0284B1B78102B0AD10A2000F01FF9264B1B68DB0701D508260FE000260DE0214B1B78602B08D1214A138808218B4313808C
:40084000002602E0042600E00426002E2BD12822184B1A7000231A4A13601A4A13601A4B1F601A4B1C60EAB2194B1A70019B5C00FF231C40114A138802218B431380154A6C
:40088000154B1A604023154A1360154A1360EB0704D5FFF76DFF134B1C6004E0114B1C600222114B1A600A2000F0CEF8301C03B0F0BDC04674010020640006408401002024
:4008C000780100208C01002098010020800100209001002017030000000F0640800F0640880F06404002064068000640F0B583B001900C1C171C1D1C002919D02D4B1B7836
:40090000102B0AD10A2000F0A9F82B4B1B68DB0701D508260FE000260DE0264B1B78602B08D1264A138808218B431380002602E0042600E00426002E35D129221D4B1A705B
:4009400000221F4B1A601F4A17601F4B1C60EBB21E490B70019B5C00FF231C400120044316490B8883430B8019491A4B19601368072B03D80422184B1A6008E0174A13687C
:40098000802149000B4313600822134B1A60EB0704D5FFF7EDFE124B1C6004E0104B1C600222104B1A600A2000F04EF8301C03B0F0BDC0467401002064000640840100205B
:4009C00094010020880100207C0100209001002017030000000F0640C80F0640600006404002064068000640024B18688007C00F7047C04604040440031C04490868FE22BB
:400A000002400120184010430860704700040440024B1868012318407047C0460404044010B5041C00F042FD07231C40E40404490B68044A134023430B6000F03BFD10BD46
:400A400000010B40FFFFC7FF1F2318401E3B8340181C014B1860704700E100E01F2318401E3B8340181C014B1860704780E100E01F2318401E3B8340181C014B1860704735
:400A800080E200E001BE704738B5041C0D1C1F2802D90020FFF7F6FFA400034B9C4664442068256038BDC0464000002070B5041C0E1E032E02D90020FFF7E4FF1F2C02D99B
:400AC0000020FFF7DFFF03252540ED00063500F0EDFCA408A400074B9C46644423680322AA409343AE40351C1D43256000F0E2FC70BDC04600E400E010B5041C06E0084BD1
:400B0000186800F0C9FC074B9C46644480231B029C42F4D8024B5868604300F0BDFC10BDCC0000200080FFFF08B5034B1B7A584300F0B2FC08BDC046CC000020F0B55746D8
:400B40004E46C0B483B0041C00F0B0FC0190E71E2D2F74D83F4B1B78DBB2A34208D33E4B1B78DBB29A463D4B1B78DBB2994631E03B4B1B78DBB2A34208D33A4B1B78DBB2AA
:400B80009A46394B1B78DBB2994623E0374B1B78DBB2A34208D3364B1B78DBB29A46354B1B78DBB2994615E0334B1B78DBB2A34208D3324B1B78DBB29A46314B1B78DBB201
:400BC000994607E02F4B1B78DBB29A462E4B1B78DBB299462D4BDE5D2F2E09D92A2C07D919222B4B1A60052000F056FC192503E0274B1D683F231D40AE4206D2234BDA5D3F
:400C0000234B1A60052000F047FC1F4B9C4664442378DBB21F4A13601F4B52461A601F4B4A461A600520FFF77FFFAE420AD9174BDA5D174B1A60052000F02EFC02E000206A
:400C4000FFF720FF019800F035FC03B00CBC91469A46F0BDC0F1FF0FC1F1FF0FC2F1FF0FC3F1FF0FC4F1FF0FC5F1FF0FC6F1FF0FC7F1FF0FC8F1FF0FC9F1FF0FCAF1FF0F5A
:400C8000CBF1FF0FCCF1FF0FCDF1FF0FD83700002CFF0B4028FF0B401CFF0B4020FF0B40F0B583B000F002FC041C134A13685B005B0813608025ED052B68022633432B60CA
:400CC0000E4B1B889BB20E4A13600E4A116804230B4313600C4F3B6801930220FFF7A0FE30BF019B3B602B68B3432B60201C00F0E1FB03B0F0BDC04600000B4052F1FF0F9B
:400D00000C000B4010ED00E000010B40034B1868C0231B02184000D00120704700010B40034A1368802109060B4313607047C04604010B4008B500F0B9FB044A1368C021C8
:400D400009020B43136000F0B5FB08BD00010B4010B500F0ABFB08490A68084B1A408024E40122430A600A6813408022120213430B6000F09FFB10BD00010B40FF3FFFFFB8
:400D800010B5041E022C02D90020FFF77BFE044B1868E4000134E040041C0120204010BD10020B4038B5041C0D1C022802D90020FFF768FE201CFFF7E3FF00280BD1064AC2
:400DC0001368E4000321081CA04083430D40A5402C1C1C43146038BD0C020B4038B5041C0D1C012802D90020FFF74CFE201CFFF7C7FF00280AD106490B68E4000234012277
:400E0000A2409343A5402C1C1C430C6038BDC0460C020B4010B5041CFFF782FF0C4A136823431360E30704D50020FFF7A9FF0028FAD0E30504D50120FFF7A2FF0028FAD0CA
:400E4000E30304D50220FFF79BFF0028FAD010BD10020B4038B5051C0020FFF791FF041C0120FFF78DFF04430220FFF789FF204305D1034A1168034B0B401D43156038BD25
:400E80000C020B40F7F7FFFF38B5041C0D1C012802D90020FFF7F6FDC920FFF745FE074A10682401064BA3409843031C281CA040184310604320FFF737FE38BD08020B40A5
:400EC000FFFF000070B5061C00F0F0FA041CFFF71DFF002803D0FFF73BFF012500E000250848331C0340084A106808490840184310601368012D01D1FFF71CFF201C00F083
:400F0000D9FA70BD0404040010020B40FBFBFBFF04490A68DF231A404001BF3B184010430860704700030440034A1168034B0B40C00318431060704708030440FF7FFCFF85
:400F40000622044B1A704132034B1A700022034B1A70704722000F4032000F4083000F4010B500F0A3FA041C054A117810230B43137000F079F8201C00F09CFA10BDC0466C
:400F800093000F4008B5064B1B78002B04D1FFF7D7FF0122024B1A70FFF7E2FF08BDC0466C01002010B500F081FA041C00F066F8044A137810218B431370201C00F07AFA20
:400FC00010BDC04693000F40034B1B785B07FBD4024B18707047C04663000F4043000F4070B5084B1B78002B06D10AE0305DFFF7EBFF0134E4B202E00D1C061C0024AC42E6
:40100000F4D370BD6C010020064B1B78DBB25A0703D49B0703D5002002E0042000E001207047C04663000F4008B5074B1B78DB0603D50122054B1A7002E00022034B1A7042
:40104000FFF7B0FF08BDC04693000F4070010020034A1168034B0B40C00318431060704708000440FF7FFCFF034A1368802109060B4313607047C04640000240024A1368E5
:401080005B005B081360704740000240014B58667047C0460000002010B5041C00F006FA044A1168044B0B40A4031C43146000F001FA10BD08E400E0FF3FFFFF802292003B
:4010C000014B1A607047C04600E100E080229200014B1A607047C04680E100E010B5041CFFF7F4FF201CFFF7D1FF0320FFF7D4FFFFF7E4FF10BDC04610B5C04B1B68002BCE
:4011000000D09847BE4B1B68DB0702D50022BD4B1A60BD4B1B789B0628D5BC4B1B68DB0507D5BB4A1188C0239B000B431380012300E00023B54A1268D20706D5B44A1188B0
:4011400090239B000B4313800123002B0FD0AE4A1278D20701D5012200E00222AC49088802430A800021A84A117000E00023A64A1278920600D414E1A44A1268D20611D5CE
:401180001022A44B1A60A04B1B78DB0701D5012300E002239E4A11880B43138010229A4B1A7029E1984A1278120720D5974A126892070AD50222974B1A60954A1188882338
:4011C0009B000B431380012311E08F4A1278D20703D525218C4A117009E024218A4A11708D4A1268002A02D014398C4A1160864A1278520700D4ABE0834A1278D20749D5E9
:40120000874A1268120727D5864A1268864909680F240C40854909686418141B082C09D8002C16D1824A1168824B0B401360012308340EE008240CE07C4A11687E48006890
:4012400041187E480068C0B20870116801311160013C002CF0D119E0714A1268520715D5724A116874480068411874480068C0B2087011680131116011686A4A12689142F0
:4012800003D204216E4A116000E001236D496E4A11605DE05D4A1268920726D502225D4B1A606A4A13680F211940136880221202134000D00123CB18654A1168CB1A13605D
:4012C0001268644B1A60524A118884239B000B431380614B1A68802149020A431A6019685E4A0A401A60012332E05D4A1268D20612D424E0564A1168474A1268914211D232
:40130000534A11685748006841180978C9B2564801601168013111604C4A12680F210A40082AE7D14A4A11683B4A1268914202D140213A4A11604D494D4A116008E0484A8C
:401340001268520604D5424B1A68424B1A600123002B51D0364A1168364B0B4013600023444A13602D4A1360434B1B789B070ED5254B1B78DB0701D5092300E00A23244AEE
:4013800011880B43138060221F4B1A7034E03B4B1B689B0601D5182200E01022284B1A602AE0194B1B78DB0626D4354A13685B005B0813601021144B19701D4B18683149EE
:4013C000014019601868304901401960002329490B6012490B601B49254B196023491A4B19602A492A4B19602A490A4B19601368802109060B43136010BDC0466801002039
:401400008C0E0640880E0640740100200C0F064084010020000F064098010020880F0640CC0F064088010020080306409401002060000640FFFEFFFF7C01002040030640D3
:4014400068000640ED0F0000C00F064008020640780100208C01002004020640FFFFFEFF8C0F06408001002040020640F3070000800F0640C80F064090010020640006407F
:4014800000000640FF5FFFFFFFFCFFFFFF0F0000400F0640170300000230800804D0C0460138FDD1C046C046C0467047EFF3108072B6704780F310887047C046C046C0464B
:4014C000F0B5474680B48CB0041C0D1C00F054F8274B061C98461B780F1C5BB201330DD0201C291C00F03EF9002807D0201C291C0022002300F00EFA002805D1301C391C73
:401500000CB004BC9046F0BD01230293194B06940795039300230A934346049405951C78002C0FD1002300240893099402A800F047F9002810D00A9B0193002B11D1089E5B
:40154000099FDBE700200021021C0B1C00F050FD08900991022CE9D102F05EF821230360E9E702F059F80A9B01930360E7E7C046DC00002008380000F0B556464D46444618
:401580005F46754BF0B40A1C0E1C191C83B0051C041C3140994200D1B7E0002E00DC93E0311500D1A0E06D4B1203CE188023120B5B031A43F30700D577E07310520098465A
:4015C000E30FD318802216210027002564009203A818984202DC85181B1ABF18E00F5B0001391B18640052080029F1D1002201929446802212062020924609E0AB4247D021
:40160000E10F5B0001385B186400520800281ED0614689189D42F1DA8E18B446CE0FF607A94656452ED05B1B8C42AD416D425B1B641A01995B008B4693445946013801910F
:40164000E10F4D465B18640052080028E0D1234330D1019B5B0842497A108C466244F90702D5802109060B4341460E05B1181D1C0E1C281C311C03B03CBC90469946A24676
:40168000AB46F0BD6646002ECDDB6E1CB146CAE7A14208D88E18B446CE0FF607564541D099460023C4E71D1CAAE7E30F5200D218640082E7019B01333AD0019A012394460A
:4016C000134063445B08C6E773005B080343D0D00021002E33D1E20A15396405002AFAD080235B031A4226D1802000234003520001330242FBD001252020ED1AC01A4919A2
:40170000251CC5409C402A434DE72A1C331C281C311C01F0ABF82A1C331C00F041F9051C0E1CA6E76646002EAFDA0023A9467FE7013700238FE7202001250023DFE72A1C54
:40174000331C281C311C01F02BFB021C0B1C00F04FFC051C0E1C8CE70000F07F01FCFFFF0000E03F0A1C031C024330B50220002A00D130BD80221206914216D00C4A042045
:401780008C180C4A9442F4D90B4C0C199442F0D90A4A4900490803209142EAD9064A00209142E6D158425841E3E7002BE1D0EFE70000F0FFFFFFDF7F0000F07FFFFF0F005A
:4017C00000207047002243088B4274D303098B425FD3030A8B4244D3030B8B4228D3030C8B420DD3FF22090212BA030C8B4202D31212090265D0030B8B4219D300E0090A3C
:40180000C30B8B4201D3CB03C01A5241830B8B4201D38B03C01A5241430B8B4201D34B03C01A5241030B8B4201D30B03C01A5241C30A8B4201D3CB02C01A5241830A8B42FE
:4018400001D38B02C01A5241430A8B4201D34B02C01A5241030A8B4201D30B02C01A5241CDD2C3098B4201D3CB01C01A524183098B4201D38B01C01A524143098B4201D372
:401880004B01C01A524103098B4201D30B01C01A5241C3088B4201D3CB00C01A524183088B4201D38B00C01A524143088B4201D34B00C01A5241411A00D201465241104680
:4018C0007047FFE701B5002000F00CF802BDC0460029F7D003B5FFF775FF0EBC4243891A1847C0467047C0468446101C62468C46191C634600E0C0461FB500F051FF002826
:4019000001D40021C8421FBD10B500F095FE4042013010BD10B500F043FF002801DB002010BD012010BDC04610B500F039FF002801DD002010BD012010BDC04610B500F09E
:40194000BFFE002801DC002010BD012010BDC04610B500F0B5FE002801DA002010BD012010BDC04638B500220C4B041C0D1CFFF7EFFF002804D1201C291C01F08BFD38BDF9
:40198000064B0022201C291C01F00AFA01F082FD80231B069C466044F1E7C0460000E041F0B5454657464E4694464C000A03C90FE0B488460E1C1903470FC500480A61465D
:4019C000490F01436046520A1743C0005A00640D520DDB0F8446984500D1A7E0A01A002800DC01E1002A3DD163460B4300D0D4E06B0700D188E00F232B40042B00D183E01E
:401A00002A1DAA42AD4180236D427F191B043B404646151C002B00D17CE0CC4B01349C4200D1FDE03A1CCA4BED081A405007640552020543120B640D002112030B0D1B0502
:401A40006405120B1A436308C24CF60714401C43640064083443281C211C1CBC90469946A246F0BDB94B9C42C2D080231B041943382800DDECE01F2800DD21E120220E1C43
:401A80006346121A9640C340334366469640321C561EB24113430A1CC240EB1A9D42B6411D1CBA1A7642971B3B0200D497E07A02560A002E00D1B6E0301C01F08FFD031C1A
:401AC000083B1F2B00DDB7E09E40371C28262A1C361AF240161C9D403E439C4200DDB2E01C1B621C1F2A00DDD8E01F23291C1C1B331CA540A340D1406C1EA541D640194366
:401B00000D43371C002473E780231B043B40464600D082E78D4BED0878070543FA089C4232D012036405120B640D85E7A31A002B00DC94E0002A3CD0844A944200D157E773
:401B4000802212041143382B00DC05E163461943481E81410022C8B24019A8429B41051CD2195B42D7183B0239D5784B01349C4200D14CE10120764A6B083A402840184304
:401B8000D5070543570833E72B1C134348D080231B031A431203120B4EE70138002878D16346EE1AB5429B417A1A5B42D71A351C7AE7021C0A4300D11AE7013B002B00D0D8
:401BC000F2E04019A8429B41CA195B42D718051CC9E7131C334300D118E1171C351C46466B0700D007E795E700287AD1621C5205520D012A00DCFBE06246AA1A9542B641C6
:401C00009146781A7242861A320200D493E06246551BAC458041CF1B40423E1A984648E70022002508E7281C01F0D8FC2030031C083B1F2B00DC47E7283885402E1C0025F8
:401C40009C4200DC4CE7424AE41A1640371CCFE6634619434B1E99410022CBB21DE7002B00D0F2E0601C43055B0D012B00DCA4E0364B984200D121E163465C19AC429B4109
:401C8000CF195B42FA186408D50725435708041CAEE62E4B9C4200D0EAE6A9E6211C331C1F39CB40191C202A00D182E03F231C1BA64035436E1EB54100270D4300248EE71A
:401CC000031C0E1C203BDE40202874D040231B1A99400B1C62461343591E8B4100223343DBE6002C50D0194CA24200D1A8E08024240440422743382800DDD9E01F2800DDA4
:401D000039E120243E1C241AA640B0462E1CA146C640444626434C46A5406C1EA541C74035436046451BCF1BAC45894149427F1A141C9846B8E64B464D46334300D0B8E6BE
:401D40000026002700240025E4E6C046FF070000FFFF7FFFFFFF0F801F2B5BDC2022081CD21A9040814660469246D8404A4610438146524660469040021C501E8241484659
:401D800010430A1CDA40E7E63C1C2C4358D0C043002851D16046451BAC458041CF1B40423F1A141C98467FE68F4A944200D0CAE61EE600267DE700238CE73B1C2B43002C53
:401DC00000D0BDE0002B00D1F5E063460B4300D10EE663465B19AB428041CA19404217183A0200D4FCE0814A1D1C17400134FFE53A1C2A43002C51D1002A00D085E0624612
:401E00000A4303D00F1C65469846F1E50026002700257FE6181C0A1C2038C240202B00D1A7E04020C01A8140081C63461843411E8841104300228FE66B4CA24200D05AE7E9
:401E40000F1C6546141C9846D2E5002C3AD1381C284371D0DB43002B18D0634882426BD0382B00DD9DE01F2B00DDA7E020203C1CC01A8440A1462C1C8246DC40484604432C
:401E800050468540681E8541DF402543654465459B417F185B42FF18141C64E6002A19D162460A4377D00F1C654698464E4C9FE53D436F1EBD410027EDB232E7041C0027AD
:401EC000002527E64848824236D0802000045B420743C5E762460A4349D08024ED087807FA0824032843224209D0CE08264206D162464F07381CD20810439846321CD20096
:401F0000470F1743C500384C72E562460A4300D16EE56246AE1AB5429241781A5242821A100200D455E66246551BAC458041CA1B4042171A98465BE50F1C6546141C57E559
:401F4000002B34D063460B4311D08024ED087807FA08240328432242D1D0CB082342CED162464F07381CD20810431A1CC7E71E4C3EE5002059E7041C3E1C203CE640341C36
:401F800020282BD04026301A87403D436F1EBD4100272543C5E680270026FF03124C0025B8E53D436F1EBD410027EDB26EE70F1C65460D4C1CE50F1C654619E51C1C381C7D
:401FC000203CE040041C202B0CD04020C31A9F403D436F1EBD410027254357E70027D4E71D1CFCE50027F3E7FF070000FFFF7FFFF0B55F4656464D464446F0B40F0387B0BB
:4020000098464D003B0BCC0F061C924681469B466D0D01946BD0664B9D4235D080275B467F031F43F3009946624BFF00400F9C4607430023BB460026654400934246170386
:402040005000D20F53463F0B400D904600D172E0574A904267D080235B031F435346554A5B0FFF001F43944653460021DB0060444246624092462D1A0E430F2E00D9A1E0B2
:402080004D48B600805987465B461E4300D076E000239B469946023308260093CEE799464346BB4601930091009B022B6BD1019B9A46002153460122002789461A403C4BB7
:4020C00000213F030C0D24053F0B27433B4C1B0527401F437F00D2077F0817434846391C07B03CBC90469946A246AB46F0BD03433ED05B46002B00D19CE1584601F06EFAAC
:402100002823311C1B1A021C5F46D940083A97400B1C96403B439B46B1460023284D00262D1A00938AE7524603213A43A0D10027002302219CE752463A4315D0002F00D1ED
:4021400085E1381C01F04AFA021C28215046891A131CC8405146083B99409F400B1C074317480021801A83E70027002301217FE700239B4699460133042600935EE7032301
:402180000C2600935AE7032B00D13CE2012B00D0BFE11A1C019B1A4000210023002789468EE700238027994600223F03004B87E7FF07000001FCFFFF10380000FFFF0F80E9
:4021C0000DFCFFFFBB4500D951E100D14CE14A46039200225C469046013D180E3F0238431B020193030C994603041B0C4946061C201C1F1C0093FFF7E5FA021C7A43029026
:402200004946201C171CFFF763FB039B09041B0C19438F420CD9029B8919013B8E4200D952E18F4200D84FE1029B8919023B0293CC1B201C4946FFF7C5FA009F83464743CE
:402240004946201CFFF744FB039A0B041404240C23439F420DD95A469B19013A9E4200D930E19F4200D82DE10222524294469B19E344029ADB1B17045A463A439346019C70
:40228000170C220C101C04925A4611042204120C141C090C7C4305924A43414347436118100C09188C4203D980204002844667440C0C12040804120C3C198118A34200D228
:4022C000E5E000D1DFE01F1B43465C1AA04592415242BF1AB74200D10EE1381C4946FFF771FA009B029043434946381C9846FFF7EFFA230C0F041F43B8450CD9029BBF19E0
:40230000013BBE4200D9FBE0B84500D8F8E0029BBF19023B02934346FF1A4946381CFFF751FA009B039043434946381C9846FFF7CFFA24040904240C214388450CD9039BA6
:402340008919013B8E4200D9DCE0884500D8D9E0039B8919023B03934346C91A029B039A1B04059C1A43100C13049146221C049F1B0C5A4344437B437843E318170CDB1925
:402380009C4203D980246402A44660441C0C12041B04120C00199B18814200D296E000D1FCE04A4601231A4391469B4BEB18002B00DC99E04A4652070AD00F2249460A40AE
:4023C000042A05D00431494592418946524293445A46D20106D55A46904B1A4080239346DB00EB188E4A934200DD62E64A465946D208490711435A4689465702514601228C
:402400005B053F0B5B0D0A405AE680205A460003024208D0074206D107433F0399463F0B4246804B4CE65F4607433F033F0B221C7C4B45E601F0D2F8031C2030272800DC47
:402440005EE6083B9E400023B346994665E6504601F0C4F8021C2032272A00DC75E657460838874000237BE6994500D2AFE65A46594654084A46C8075208024303924A464B
:40248000D2079046A9E60027884500D31CE7019F5A46BC46E044B845BF417F42BF19FF18013ABE4206D2BC425FD800D19FE03F1B934609E7B742FAD1019B4345F3D9371B40
:4024C000934601E79346D4E60293B1E64A468919013A8E4218D99146814200D061E7019A9A4200D05DE760E74F4F7F1B382F13DD012253461A404FE601235B42994654E7F5
:40250000029308E7039327E788423CD874D0914647E7019B9A4648E71F2F44DC434B4A469C465B466544FA40AB4013434A46AA40151C6A1E95415A46FA402B43171C5A0789
:4025400009D00F221A40042A05D01A1D9A429B415B42FF18131C3A023ED55346012200211A40002701238946AAE502235B429C46019AE3449446E04490459B415B429B198D
:40258000DF193F1BA0E6019F4A467C00BC42BF417F42BF19023AC91901949CE7002B95D1002201929BE75A46214B5B1BDA40202F27D0204B9C465B466544AB4049460B43C1
:4025C000591E8B411343072200271A4007D00F2200271A40042AB8D17A077F023F0BDB0813439946012253461A40002368E54145BBD89346002767E6019C9C42C3D3914620
:402600006DE70023DAE780275B463F031F433F033F0B019A034B53E5FF030000FFFFFFFEFE070000FF07000002FCFFFF1E040000E2FBFFFF3E040000F0B55F464D4644461F
:402640005646F0B41F035C00DB0F99461B4B0E034D00C90F8446360B6D0D8B4690463F0B640D9D420CD0154B9C4210D00123A54214D0181C3CBC90469946A246AB46F0BD21
:40268000311C01230143F4D10C4B9C42EED13A430123002AEDD10123A542EAD1BE42E8D1C445E6D1CB4506D0002DE2D13043031C581E8341DDE70023DBE7C046FF0700009D
:4026C000F0B5574645464E46E0B40F034E00C90F8A4632491D035C0084463F0B760D90462D0B640DDB0F8E420FD08C4239D0002E10D13843414241418946002C27D12A4371
:4027000025D1002000290ED108E0391C01432ED1B44226D0002C0BD09A450DD05346594201231943081C1CBC90469946A246F0BD2A43F3D09A45F1D1A642EFDC1ADA504644
:4027400041424841012341421943081CEBE74A46002AE1D058425841012241421143081CE1E7291C114302D1002EC2D0D4E702204042D8E7AF42D1D809D00020AF42D2D25E
:40278000504641424841012340421843CBE7C445C4D80020C445F3D3C5E7C046FF070000F0B55F464D46444656468046F0B4061C0803000B84462C484C001F035D00C90FF2
:4027C000640D8B4691463F0B6D0DDB0F844212D0854225D0002C14D161460E4370424641002D35D0002E21D058425841012143420B43181C0EE06146022031430AD1A542D2
:402800000ED0002D12D13A4310D15B46594201231943081C3CBC90469946A246AB46F0BD391C02201143F5D1002CD5D09B45ECD1AC42EADC05DBBC45E7D80FD00020BC45E6
:40284000E8D2584641424841414201200843E1E73A43C7D10020002EDCD1D6E7C845D4D80020C845EDD3D5E7FF070000F0B55F4656464D464446F0B4051C061C080387B0DC
:4028800099464F00030BCC0F92469B467F0D019467D06C4B9F4236D080205B4640031843C0006B0F1843684B83469C4600239846EE00674400934B4649461D03C90F5B00E0
:4028C00052462D0B5B0D894600D16EE05D498B4264D080205C4940038C4600210543ED00500F0543D20063444846FF187B1C9A46009B604002900B430F2B00D9ACE05348CA
:402900009B00C3589F465B461D4300D082E00823009300239B46023300269846CBE7029B01934346022B59D1012400250026019B1C40444B00212D030A0D12052D0B154305
:40294000434A1B0515401D436D00E4076D082543301C291C07B03CBC90469946A246AB46F0BD2B434ED05B46002B00D185E1584600F034FE021C2823291C9B1A161C5846C3
:40298000D940083EB0400B1CB54003439B462E1C0023304F0093BF1A98468CE7514629432ED10025002202219EE75146294323D0002D00D154E1281C00F010FE031C282118
:4029C0005046C91A1A1CC8405146083A914095400A1C05431F480021C31A85E7032B00D1C2E1012B00D06DE14446019B00251C40E4B2002300269DE700250022012173E7A9
:402A0000032171E70423009300239B4601330026984650E70C230093093B98464BE7802500242D030026074B84E74B46AB46161C0193884675E7029BAB46161C0193884667
:402A40006FE7C046FF07000001FCFFFF50380000FFFF0F800DFCFFFF330C3604360C9C46331C140C1204120C53439846634653439946634663430193331C41466343090C97
:402A80004B445B18994505D9802040028146019949440191190C039141460904090C1B045B1804932B0C9846331C2D04290C4B43604600934346654658435E43009B4D433F
:402AC0001B0C9946AE194E448446B54203D980235B029946CC44350C2B1C0398634484460593009B36041B041B0CF3189C446046039058460504060C280C84465043351CE5
:402B000081466046654344434846000C8346724314195C44A24203D98022520293465D44220CAD184A461204120C24044046A41862464A43714346436046009646467043D6
:402B40008046100C84468844E044414505D9802149028C46009961440091019803998446614499429B415B4299460598434684461204120C1B049B1863449C46AB468342BC
:402B80009B4140460A19CC44A2428941E344CC45B6415C46000C8046494276425B426418334398448C428941AB459B4149425B4219430D1C009B4544EE187602E50D2E436B
:402BC000B346049B56021E43731E9E415B46D20D324366021643DB010AD50123334076081E435B46DB071E435B465B089B465746634BFB18002B5ADD720709D00F223240AF
:402C0000042A05D0321DB242B6417642B344161C5A46D20106D55A465A4B1A4080239346DB00FB18584A934234DD0124029B00251C400026554B7DE680205B4600030342A2
:402C400008D0054206D105432D032D0B4C46161C4E4B6FE65D4605432D032D0B4B4B69E6504600F0BBFC031C2033272B00DCA6E65546083885400022ACE6281C00F0AEFC29
:402C8000021C2032272A00DC75E6083885400026AB467DE65A46F608520716435A4601245502029A5B052D0B5B0D144042E6384DED1B382D0ADD0124029B00251C400026D7
:402CC000002337E6019B5746029391E71F2D25DC304B321C9C466744BE405B46BB40371CEA407E1EB74113433B431E1C5B46EB401D1C730709D00F233340042B05D0331DA1
:402D0000B342B6417642AD191E1C2B0220D50124029B00251C40002601230BE65A461E4BDB1BDA40131C202D1CD01C4A94465A466744BA40171C3E43721E96411E430723A3
:402D40000025334007D00F2300253340042BD6D16B076D022D0B0124F6081E43029B1C400023E7E50027E6E780255B4601242D031D43019B2D0323401C1C2D0B034BD9E525
:402D8000FF030000FFFFFFFEFE070000FF07000002FCFFFF1E040000E2FBFFFF3E040000F0B54D4644465F465646F0B40E1C111C3203520A470F1743C5001A035800DB0F6D
:402DC0009946520A4B0F83B01A43CB000193CF4B7400F60F640DB046400D984200D1E8E00123494659400B1C9E4200D1B1E0261A002E00DC1CE1002842D1131C01990B4347
:402E000000D0E6E06B0700D18EE00F232B40042B00D189E02A1DAA42AD418023012641466D427F191B043B400E40151C002B00D183E0B64B01349C4200D116E13A1CB44BE3
:402E4000ED081A405007640552020543120B640D002112030B0D1B056405120B1A436308AC4CF60714401C43640064083443281C211C03B03CBC90469946A246AB46F0BD07
:402E8000A24B9C42BED080231B041A43382E00DD03E11F2E00DD3FE12020831B9946131C49468B409C46019B6046F34003430198F2408840011C481E81410B43EB1A9D423C
:402EC00080411D1CBA1A4042171A3B0200D4A8E07A02560A002E00D1CAE0301C00F07EFB031C083B1F2B00DDCBE02822291C121AD1409E400A1C9D4032439C4200DDC8E0C5
:402F00001C1B671C1F2F00DDEDE01F23291C1C1B131CA540A340F9406C1EA541FA4019430D43171C00246DE78023012642461B043B401640002B00D07BE7744BED0878071E
:402F40000543FA089C423BD012036405120B640D7EE7231A9A46002B00DCA5E0002844D06A48844200D14DE78020000402435346382B00DC1CE1019B1A43511E8A41D1B2D7
:402F800000224919A94280410D1CD219404217183B0246D55D4B01349C4200D169E101205B4A6B083A4028401843D5070543570828E7131C01990B4300D111E74B4613E77B
:402FC0002B1C134351D080231B031A431203120B3EE7013E002E00D080E0691A8D429B41BA1A5B42D71A0D1C6FE7101C019B184300D107E701235B429C46E2445346002B83
:4030000000D002E1019BD2195919A9429B415B42D7180D1CBCE76346034300D128E1071C65466B0700D0F0E6012643461E4084E7002E00D081E0601C4005400D012800DC2B
:4030400007E10199681A84466545B641B81A7642861B300200D4A1E08C464D1BAC458941D21B4942561A984634E700220025EFE6281C00F0B3FA2030031C083B1F2B00DC84
:4030800033E7021C283A95402A1C00259C4200DC36E71F4FE41A1740B4E6019B1A43511E8A41D3B2002209E7002B00D001E1601C43055B0D012B00DCB0E0144B984200D18D
:4030C0001EE1019BD2195919A9429B415B42D2184908D5070D435708041C93E60B4B9C4200D0D3E68EE6211C131C1F39CB40191C202F00D18EE03F231C1BA24015436A1EF7
:40310000954100270D4300248BE7C046FF070000FFFF7FFFFFFF0F80331C101C203BD840202E79D040239B1B9A40131C019A1343591E8B4100220343C0E6002C53D0C74C4C
:40314000A04200D1B0E0802471428946240427434946382900DDCDE01F2900DD59E120243E1C611A8E408A46B04649462E1CCE405146B4468D4064464646494626436C1ED1
:40318000A541CF4035430199D71B8C464D1BAC4592415242BF1A041C984696E663466546334300D096E60026002700240025C4E61F2B61DC2020C31A9B46131C59468B40BD
:4031C00051469946019BCB409C464B46604603439C465B46019999406346481E814119435346DA40CDE63C1C2C435DD0F1438946002955D10199D21B8C464D1BAC45894108
:403200004942571A041C98465FE69448844200D0ADE6F7E5002271E7002387E73B1C2B43002C00D0DAE0002B00D113E1131C01990B4300D1E6E54919A9429B41D2195B4294
:40324000D7183B0200D421E1854B0D1C1F40041CD8E5381C2843002C40D1002800D083E0101C0199084303D0171C0D1C9846C9E500260027002560E65046131C2038C3401C
:40328000181C5346202B00D1C1E0402351465B1A9A40019911434A1E91410022014370E66E4CA04200D053E7171C019D041C9846A8E5002C28D13C1C2C4300D18AE0DB4310
:4032C0009A46002B00D082E0019BD2199C4665449D42894149425718041C59E600285BD1101C0199084300D1A4E0171C0D1C98465A4C87E53D436F1EBD410027EDB242E77D
:40330000041C0027002518E6544CA04262D0534680245B429A46240427435346382B00DD8EE01F2B00DD9DE02024E31A9B463B1C59468B40514699462B1CCB409C464B461A
:40334000644623439C465B469D4063466C1EA541CF401D43019BBF189C4665449D4292415242BF18041C13E6101C0199084300D148E5681A844685428041BE1A4042301A9A
:40338000060200D447E68C464D1BAC458941D21B4942571A984635E5101C0199084334D080247807ED08FF0824032843274208D0D608264205D1C90852070A43101C371C15
:4033C0009846FF00420F1743C500244C1AE5234CA042A2D1171C019D041C13E5002B35D0131C01990B4310D080247807ED08FF08240328432742E4D0D3082342E1D1C908AC
:4034000052070A43101C1F1CDBE7144CFAE400223FE74C463E1C203CE6404946341C202932D04026761AB7403D436F1EBD4100272543A8E680270026FF03084C00257CE5E1
:403440003D436F1EBD410027EDB283E7171C019D024CD7E4171C019DD4E4C046FF070000FFFF7FFF54463B1C203CE3401C1C5346202B0DD0402351465B1A9F403D436F1E62
:40348000BD410027254365E70027CDE70D1CC8E50027F3E70B0330B5134C1A0B4B00051C5B0DC90F0020A34210DD104883420EDC80200F4C40030243E41A1F2C0ADD0D485D
:4034C000C31ADA40131C48424340581830BD0A4BC818FBE7281CE040084CA44663449A40131C0343EFE7C046FE0300001D0400003304000013040000FFFFFF7FEDFBFFFFDF
:4035000038B5041E16D0C50F00D04442201C00F065F8174B1B1A0A2821DC021C211C153291400A1C0B21081AC4405B052403240B5B0D03E000250023002400220021101C56
:4035400024030A0D1205240B14430A4A1B0514401C436400ED0764082C43211C38BD0B3884405B052403240B5B0D0022E6E7C0461E040000FFFF0F8010B5041E10D000F064
:403580002DF8144A121A0A281ADC0B23211C1B1AD94015300B03520584401B0B520D01E00022002300211B03201C1C0B0B0D1B052343094C1205234013435B00590810BD74
:4035C000031C0B3B9C40520523031B0B520D0024E8E7C0461E040000FFFF0F801C2101231B04984201D3000C10391B0A984201D3000A08391B09984201D30009043902A283
:40360000105C40187047C04604030202010101010000000000000000014B18687047C046400100200E4B70B500251E1C0D4CE41AA410A54204D0AB00F35898470135F8E783
:4036400000F028F9084B00251E1C084CE41AA410A54204D0AB00F35898470135F8E770BDA0380000A0380000A0380000A8380000031C8218934202D019700133FAE7704792
:403680000000000000300F40000400400F40000401000F4061320F4030330F4002400F4002410F4002600F40830F08010A0E0B020C0C0D100E030F2112031568160817033C
:4036C0001B061C011E06214623092A0C2D682F05316033183507360F390A3A803B203F014001464049FF4A074BFF4C404D204EF04F055008580459045A045F01604061A834
:4037000062406320802882118402852889188B228C0D8E3095129720980D99019A109B069E15A138A304A40CA520A611AA20AD20AF18B03CB301B402B53EB601BA02BE50E2
:40374000BF04C041C102C50CC6E0C70BC819C9FFCAFFCBFFCEF0CF44D00CD401D804D904DA04DB04DF01E6C0EA40EB0203A20540070809900FA210301320172019801A0404
:403780001B031D401F80212023102404251827A82B912F8231283728380839203FA0400441904302478048205004532055805750581059825A0489028B30C0CDC2B3C446EB
:4037C000CA9BCC66CE36D01DD60FE6805E01D6808A01960101011001030405060708090A0B0C0E0F101112131415161718191B1C1D1E1F2021222325262728292A2B2E2F4B
:4038000030313233343500007371727400000000C4210000B2200000982100009E20000098210000A2210000982100009E200000B2200000B2200000A22100009E20000049
:40384000A8200000A8200000A82000000A240000582A0000362A0000362A00002A2A00001E2900001E2900001E2A00002A2A00001E2900001E2A00001E2900002A2A0000D8
:40388000222900002229000022290000382C000043000000F8B5C046F8BC08BC9E467047B101000061050000F8B5C046F8BC08BC9E46704789010000C8380000C80000206A
:4038C0008000000058000000000000000000E803D00700000200000080841E0001000000000000000000000000000000000000000000000000000000000000000000000009
:4039000090380000000000000000000000000000000000000000000000000000000000000000000000000000000000000000000000000000000000000000000000000000BF
:40394000E000002000000000000000000000000000000000000000000000000000000000000000000000000000000000000000000000000000000000000000000000000047
:403980000000000000000000000000000000000000000000000000000000000000000000000000000000000000000000000000000000000000000000000000000000000007
:4039C00000000000000000000000000000000000000000000000000000000000000000000000000000000000000000000000000000000000000000000000000000000000C7
:403A00000000000000000000000000000000000000000000000000000000000000000000000000000000000000000000000000000000000000000000000000000000000086
:403A40000000000000000000000000000000000000000000000000000000000000000000000000000000000000000000000000000000000000000000000000000000000046
:0200000490303A
:0200000083F784
:0200000490402A
:200000000000000000000000000000000000000000000000000000000000000000000000E0
:0200000490501A
:0C000000000204C81193110104DA958A73
:0200000490600A
:0100000001FE
:00000001FF